{
  "_format": "hh-sol-artifact-1",
  "contractName": "BlockchainSplitwise",
  "sourceName": "contracts/BlockchainSplitwise.sol",
  "abi": [
    {
      "anonymous": false,
      "inputs": [
        {
          "indexed": false,
          "internalType": "int32",
          "name": "cycle_end",
          "type": "int32"
        }
      ],
      "name": "logCycleEnd",
      "type": "event"
    },
    {
      "anonymous": false,
      "inputs": [
        {
          "indexed": false,
          "internalType": "string",
          "name": "message",
          "type": "string"
        }
      ],
      "name": "logMessage",
      "type": "event"
    },
    {
      "anonymous": false,
      "inputs": [
        {
          "indexed": false,
          "internalType": "uint32",
          "name": "min",
          "type": "uint32"
        }
      ],
      "name": "logMin",
      "type": "event"
    },
    {
      "anonymous": false,
      "inputs": [
        {
          "indexed": false,
          "internalType": "address",
          "name": "_address",
          "type": "address"
        }
      ],
      "name": "visitedNode",
      "type": "event"
    },
    {
      "inputs": [
        {
          "internalType": "address",
          "name": "creditor",
          "type": "address"
        },
        {
          "internalType": "uint32",
          "name": "amount",
          "type": "uint32"
        }
      ],
      "name": "add_IOU",
      "outputs": [],
      "stateMutability": "nonpayable",
      "type": "function"
    },
    {
      "inputs": [],
      "name": "allUsers",
      "outputs": [
        {
          "internalType": "address[]",
          "name": "",
          "type": "address[]"
        }
      ],
      "stateMutability": "view",
      "type": "function"
    },
    {
      "inputs": [
        {
          "internalType": "address",
          "name": "",
          "type": "address"
        },
        {
          "internalType": "address",
          "name": "",
          "type": "address"
        }
      ],
      "name": "balances",
      "outputs": [
        {
          "internalType": "uint32",
          "name": "",
          "type": "uint32"
        }
      ],
      "stateMutability": "view",
      "type": "function"
    },
    {
      "inputs": [
        {
          "internalType": "address",
          "name": "user",
          "type": "address"
        }
      ],
      "name": "getNeighbors",
      "outputs": [
        {
          "internalType": "address[10]",
          "name": "",
          "type": "address[10]"
        }
      ],
      "stateMutability": "view",
      "type": "function"
    },
    {
      "inputs": [
        {
          "internalType": "address",
          "name": "debtor",
          "type": "address"
        },
        {
          "internalType": "address",
          "name": "creditor",
          "type": "address"
        }
      ],
      "name": "lookup",
      "outputs": [
        {
          "internalType": "uint32",
          "name": "",
          "type": "uint32"
        }
      ],
      "stateMutability": "view",
      "type": "function"
    },
    {
      "inputs": [
        {
          "internalType": "uint256",
          "name": "",
          "type": "uint256"
        }
      ],
      "name": "parents",
      "outputs": [
        {
          "internalType": "uint32",
          "name": "",
          "type": "uint32"
        }
      ],
      "stateMutability": "view",
      "type": "function"
    },
    {
      "inputs": [
        {
          "internalType": "address",
          "name": "",
          "type": "address"
        }
      ],
      "name": "unique_users",
      "outputs": [
        {
          "internalType": "uint32",
          "name": "",
          "type": "uint32"
        }
      ],
      "stateMutability": "view",
      "type": "function"
    },
    {
      "inputs": [
        {
          "internalType": "uint256",
          "name": "",
          "type": "uint256"
        }
      ],
      "name": "users",
      "outputs": [
        {
          "internalType": "address",
          "name": "",
          "type": "address"
        }
      ],
      "stateMutability": "view",
      "type": "function"
    },
    {
      "inputs": [
        {
          "internalType": "uint256",
          "name": "",
          "type": "uint256"
        }
      ],
      "name": "visited",
      "outputs": [
        {
          "internalType": "bool",
          "name": "",
          "type": "bool"
        }
      ],
      "stateMutability": "view",
      "type": "function"
    }
  ],
  "bytecode": "0x608060405234801561001057600080fd5b50612318806100206000396000f3fe608060405234801561001057600080fd5b50600436106100935760003560e01c80636cccff28116100665780636cccff2814610146578063713584a614610176578063898572a6146101a6578063c23f001f146101d6578063d12099e41461020657610093565b806312ce937b14610098578063365b98b2146100c8578063370fa968146100f85780634918600a14610128575b600080fd5b6100b260048036038101906100ad9190611d06565b610222565b6040516100bf9190611d52565b60405180910390f35b6100e260048036038101906100dd9190611da3565b610245565b6040516100ef9190611ddf565b60405180910390f35b610112600480360381019061010d9190611da3565b610284565b60405161011f9190611e15565b60405180910390f35b6101306102b8565b60405161013d9190611eee565b60405180910390f35b610160600480360381019061015b9190611d06565b610346565b60405161016d9190611f94565b60405180910390f35b610190600480360381019061018b9190611fb0565b61050c565b60405161019d9190611d52565b60405180910390f35b6101c060048036038101906101bb9190611da3565b6105a2565b6040516101cd9190611d52565b60405180910390f35b6101f060048036038101906101eb9190611fb0565b6105dc565b6040516101fd9190611d52565b60405180910390f35b610220600480360381019061021b919061201c565b61060e565b005b60026020528060005260406000206000915054906101000a900463ffffffff1681565b6001818154811061025557600080fd5b906000526020600020016000915054906101000a900473ffffffffffffffffffffffffffffffffffffffff1681565b6004818154811061029457600080fd5b9060005260206000209060209182820401919006915054906101000a900460ff1681565b6060600180548060200260200160405190810160405280929190818152602001828054801561033c57602002820191906000526020600020905b8160009054906101000a900473ffffffffffffffffffffffffffffffffffffffff1673ffffffffffffffffffffffffffffffffffffffff16815260200190600101908083116102f2575b5050505050905090565b61034e611c80565b610356611c80565b6000805b6001805490508163ffffffff1610156105015760008060008773ffffffffffffffffffffffffffffffffffffffff1673ffffffffffffffffffffffffffffffffffffffff168152602001908152602001600020600060018463ffffffff16815481106103c9576103c861205c565b5b9060005260206000200160009054906101000a900473ffffffffffffffffffffffffffffffffffffffff1673ffffffffffffffffffffffffffffffffffffffff1673ffffffffffffffffffffffffffffffffffffffff16815260200190815260200160002060009054906101000a900463ffffffff1663ffffffff16146104ee5760018163ffffffff16815481106104645761046361205c565b5b9060005260206000200160009054906101000a900473ffffffffffffffffffffffffffffffffffffffff16838363ffffffff16600a81106104a8576104a761205c565b5b602002019073ffffffffffffffffffffffffffffffffffffffff16908173ffffffffffffffffffffffffffffffffffffffff168152505081806104ea906120ba565b9250505b80806104f9906120ba565b91505061035a565b508192505050919050565b60008060008473ffffffffffffffffffffffffffffffffffffffff1673ffffffffffffffffffffffffffffffffffffffff16815260200190815260200160002060008373ffffffffffffffffffffffffffffffffffffffff1673ffffffffffffffffffffffffffffffffffffffff16815260200190815260200160002060009054906101000a900463ffffffff16905092915050565b600381815481106105b257600080fd5b9060005260206000209060089182820401919006600402915054906101000a900463ffffffff1681565b60006020528160005260406000206020528060005260406000206000915091509054906101000a900463ffffffff1681565b8173ffffffffffffffffffffffffffffffffffffffff163373ffffffffffffffffffffffffffffffffffffffff160361067c576040517f08c379a000000000000000000000000000000000000000000000000000000000815260040161067390612143565b60405180910390fd5b6000600260003373ffffffffffffffffffffffffffffffffffffffff1673ffffffffffffffffffffffffffffffffffffffff16815260200190815260200160002060009054906101000a900463ffffffff1663ffffffff160361083f57600180805490506106ea9190612163565b600260003373ffffffffffffffffffffffffffffffffffffffff1673ffffffffffffffffffffffffffffffffffffffff16815260200190815260200160002060006101000a81548163ffffffff021916908363ffffffff1602179055506001339080600181540180825580915050600190039060005260206000200160009091909190916101000a81548173ffffffffffffffffffffffffffffffffffffffff021916908373ffffffffffffffffffffffffffffffffffffffff1602179055506003600090806001815401808255809150506001900390600052602060002090600891828204019190066004029091909190916101000a81548163ffffffff021916908363ffffffff1602179055506004600090806001815401808255809150506001900390600052602060002090602091828204019190069091909190916101000a81548160ff0219169083151502179055505b6000600260008473ffffffffffffffffffffffffffffffffffffffff1673ffffffffffffffffffffffffffffffffffffffff16815260200190815260200160002060009054906101000a900463ffffffff1663ffffffff1603610a0257600180805490506108ad9190612163565b600260008473ffffffffffffffffffffffffffffffffffffffff1673ffffffffffffffffffffffffffffffffffffffff16815260200190815260200160002060006101000a81548163ffffffff021916908363ffffffff1602179055506001829080600181540180825580915050600190039060005260206000200160009091909190916101000a81548173ffffffffffffffffffffffffffffffffffffffff021916908373ffffffffffffffffffffffffffffffffffffffff1602179055506003600090806001815401808255809150506001900390600052602060002090600891828204019190066004029091909190916101000a81548163ffffffff021916908363ffffffff1602179055506004600090806001815401808255809150506001900390600052602060002090602091828204019190069091909190916101000a81548160ff0219169083151502179055505b60008060003373ffffffffffffffffffffffffffffffffffffffff1673ffffffffffffffffffffffffffffffffffffffff16815260200190815260200160002060008473ffffffffffffffffffffffffffffffffffffffff1673ffffffffffffffffffffffffffffffffffffffff16815260200190815260200160002060009054906101000a900463ffffffff1663ffffffff1614610b5857806000803373ffffffffffffffffffffffffffffffffffffffff1673ffffffffffffffffffffffffffffffffffffffff16815260200190815260200160002060008473ffffffffffffffffffffffffffffffffffffffff1673ffffffffffffffffffffffffffffffffffffffff16815260200190815260200160002060008282829054906101000a900463ffffffff16610b359190612163565b92506101000a81548163ffffffff021916908363ffffffff1602179055506115b9565b8063ffffffff166000808473ffffffffffffffffffffffffffffffffffffffff1673ffffffffffffffffffffffffffffffffffffffff16815260200190815260200160002060003373ffffffffffffffffffffffffffffffffffffffff1673ffffffffffffffffffffffffffffffffffffffff16815260200190815260200160002060009054906101000a900463ffffffff1663ffffffff1610610cb357806000808473ffffffffffffffffffffffffffffffffffffffff1673ffffffffffffffffffffffffffffffffffffffff16815260200190815260200160002060003373ffffffffffffffffffffffffffffffffffffffff1673ffffffffffffffffffffffffffffffffffffffff16815260200190815260200160002060008282829054906101000a900463ffffffff16610c90919061219b565b92506101000a81548163ffffffff021916908363ffffffff1602179055506115b9565b6000808373ffffffffffffffffffffffffffffffffffffffff1673ffffffffffffffffffffffffffffffffffffffff16815260200190815260200160002060003373ffffffffffffffffffffffffffffffffffffffff1673ffffffffffffffffffffffffffffffffffffffff16815260200190815260200160002060009054906101000a900463ffffffff1681610d4a919061219b565b6000803373ffffffffffffffffffffffffffffffffffffffff1673ffffffffffffffffffffffffffffffffffffffff16815260200190815260200160002060008473ffffffffffffffffffffffffffffffffffffffff1673ffffffffffffffffffffffffffffffffffffffff16815260200190815260200160002060008282829054906101000a900463ffffffff16610de39190612163565b92506101000a81548163ffffffff021916908363ffffffff16021790555060008060008473ffffffffffffffffffffffffffffffffffffffff1673ffffffffffffffffffffffffffffffffffffffff16815260200190815260200160002060003373ffffffffffffffffffffffffffffffffffffffff1673ffffffffffffffffffffffffffffffffffffffff16815260200190815260200160002060006101000a81548163ffffffff021916908363ffffffff16021790555060007fffffffffffffffffffffffffffffffffffffffffffffffffffffffffffffffff9050610eca836115bd565b90507f75f9de699e24dd5dfa37a925b675e207a610e7eb8a128b1fb7e1001889cc7ea681604051610efb91906121ef565b60405180910390a17fffffffffffffffffffffffffffffffffffffffffffffffffffffffffffffffff8160030b14611581577f7c990052ff7017db6da0c658c0fe7be85f832d1995d7c93f87bf7fd4f8fa711d604051610f5a90612256565b60405180910390a160006001600260003373ffffffffffffffffffffffffffffffffffffffff1673ffffffffffffffffffffffffffffffffffffffff16815260200190815260200160002060009054906101000a900463ffffffff16610fc0919061219b565b90506000829050600080600060018463ffffffff1681548110610fe657610fe561205c565b5b9060005260206000200160009054906101000a900473ffffffffffffffffffffffffffffffffffffffff1673ffffffffffffffffffffffffffffffffffffffff1673ffffffffffffffffffffffffffffffffffffffff16815260200190815260200160002060003373ffffffffffffffffffffffffffffffffffffffff1673ffffffffffffffffffffffffffffffffffffffff16815260200190815260200160002060009054906101000a900463ffffffff1690505b8263ffffffff168263ffffffff1614611266576000806000600160038663ffffffff16815481106110d0576110cf61205c565b5b90600052602060002090600891828204019190066004029054906101000a900463ffffffff1663ffffffff168154811061110d5761110c61205c565b5b9060005260206000200160009054906101000a900473ffffffffffffffffffffffffffffffffffffffff1673ffffffffffffffffffffffffffffffffffffffff1673ffffffffffffffffffffffffffffffffffffffff168152602001908152602001600020600060018563ffffffff168154811061118e5761118d61205c565b5b9060005260206000200160009054906101000a900473ffffffffffffffffffffffffffffffffffffffff1673ffffffffffffffffffffffffffffffffffffffff1673ffffffffffffffffffffffffffffffffffffffff16815260200190815260200160002060009054906101000a900463ffffffff1690508163ffffffff168163ffffffff16101561121e578091505b60038363ffffffff16815481106112385761123761205c565b5b90600052602060002090600891828204019190066004029054906101000a900463ffffffff1692505061109c565b7fd3e7b9774300959d33b43f2cb1336190c2bf6805902a3f123be28800ffe7deab816040516112959190611d52565b60405180910390a18391505b8263ffffffff168263ffffffff161461147a5780600080600160038663ffffffff16815481106112d4576112d361205c565b5b90600052602060002090600891828204019190066004029054906101000a900463ffffffff1663ffffffff16815481106113115761131061205c565b5b9060005260206000200160009054906101000a900473ffffffffffffffffffffffffffffffffffffffff1673ffffffffffffffffffffffffffffffffffffffff1673ffffffffffffffffffffffffffffffffffffffff168152602001908152602001600020600060018563ffffffff16815481106113925761139161205c565b5b9060005260206000200160009054906101000a900473ffffffffffffffffffffffffffffffffffffffff1673ffffffffffffffffffffffffffffffffffffffff1673ffffffffffffffffffffffffffffffffffffffff16815260200190815260200160002060008282829054906101000a900463ffffffff16611415919061219b565b92506101000a81548163ffffffff021916908363ffffffff16021790555060038263ffffffff168154811061144d5761144c61205c565b5b90600052602060002090600891828204019190066004029054906101000a900463ffffffff1691506112a1565b8391508060008060018563ffffffff168154811061149b5761149a61205c565b5b9060005260206000200160009054906101000a900473ffffffffffffffffffffffffffffffffffffffff1673ffffffffffffffffffffffffffffffffffffffff1673ffffffffffffffffffffffffffffffffffffffff16815260200190815260200160002060003373ffffffffffffffffffffffffffffffffffffffff1673ffffffffffffffffffffffffffffffffffffffff16815260200190815260200160002060008282829054906101000a900463ffffffff1661155b919061219b565b92506101000a81548163ffffffff021916908363ffffffff1602179055505050506115b7565b7f7c990052ff7017db6da0c658c0fe7be85f832d1995d7c93f87bf7fd4f8fa711d6040516115ae906122c2565b60405180910390a15b505b5050565b600080600090505b6001805490508163ffffffff16101561163057600060048263ffffffff16815481106115f4576115f361205c565b5b90600052602060002090602091828204019190066101000a81548160ff0219169083151502179055508080611628906120ba565b9150506115c5565b50600160046001600260003373ffffffffffffffffffffffffffffffffffffffff1673ffffffffffffffffffffffffffffffffffffffff16815260200190815260200160002060009054906101000a900463ffffffff16611691919061219b565b63ffffffff16815481106116a8576116a761205c565b5b90600052602060002090602091828204019190066101000a81548160ff0219169083151502179055506001600260003373ffffffffffffffffffffffffffffffffffffffff1673ffffffffffffffffffffffffffffffffffffffff16815260200190815260200160002060009054906101000a900463ffffffff1661172d919061219b565b60036001600260008673ffffffffffffffffffffffffffffffffffffffff1673ffffffffffffffffffffffffffffffffffffffff16815260200190815260200160002060009054906101000a900463ffffffff1661178b919061219b565b63ffffffff16815481106117a2576117a161205c565b5b90600052602060002090600891828204019190066004026101000a81548163ffffffff021916908363ffffffff16021790555060006117e083611821565b905060008160030b13156117f7578091505061181c565b7fffffffffffffffffffffffffffffffffffffffffffffffffffffffffffffffff9150505b919050565b6000600160046001600260008673ffffffffffffffffffffffffffffffffffffffff1673ffffffffffffffffffffffffffffffffffffffff16815260200190815260200160002060009054906101000a900463ffffffff16611883919061219b565b63ffffffff168154811061189a5761189961205c565b5b90600052602060002090602091828204019190066101000a81548160ff02191690831515021790555060006118ce83610346565b905060005b600073ffffffffffffffffffffffffffffffffffffffff16828263ffffffff16600a81106119045761190361205c565b5b602002015173ffffffffffffffffffffffffffffffffffffffff1614611bb5576004600160026000858563ffffffff16600a81106119455761194461205c565b5b602002015173ffffffffffffffffffffffffffffffffffffffff1673ffffffffffffffffffffffffffffffffffffffff16815260200190815260200160002060009054906101000a900463ffffffff1661199f919061219b565b63ffffffff16815481106119b6576119b561205c565b5b90600052602060002090602091828204019190069054906101000a900460ff1615611a40576001600260008673ffffffffffffffffffffffffffffffffffffffff1673ffffffffffffffffffffffffffffffffffffffff16815260200190815260200160002060009054906101000a900463ffffffff16611a37919061219b565b92505050611c7b565b6001600260008673ffffffffffffffffffffffffffffffffffffffff1673ffffffffffffffffffffffffffffffffffffffff16815260200190815260200160002060009054906101000a900463ffffffff16611a9c919061219b565b6003600160026000868663ffffffff16600a8110611abd57611abc61205c565b5b602002015173ffffffffffffffffffffffffffffffffffffffff1673ffffffffffffffffffffffffffffffffffffffff16815260200190815260200160002060009054906101000a900463ffffffff16611b17919061219b565b63ffffffff1681548110611b2e57611b2d61205c565b5b90600052602060002090600891828204019190066004026101000a81548163ffffffff021916908363ffffffff1602179055506000611b89838363ffffffff16600a8110611b7f57611b7e61205c565b5b6020020151611821565b905060008160030b12611ba157809350505050611c7b565b8180611bac906120ba565b925050506118d3565b600060046001600260008873ffffffffffffffffffffffffffffffffffffffff1673ffffffffffffffffffffffffffffffffffffffff16815260200190815260200160002060009054906101000a900463ffffffff16611c15919061219b565b63ffffffff1681548110611c2c57611c2b61205c565b5b90600052602060002090602091828204019190066101000a81548160ff0219169083151502179055507fffffffffffffffffffffffffffffffffffffffffffffffffffffffffffffffff925050505b919050565b604051806101400160405280600a90602082028036833780820191505090505090565b600080fd5b600073ffffffffffffffffffffffffffffffffffffffff82169050919050565b6000611cd382611ca8565b9050919050565b611ce381611cc8565b8114611cee57600080fd5b50565b600081359050611d0081611cda565b92915050565b600060208284031215611d1c57611d1b611ca3565b5b6000611d2a84828501611cf1565b91505092915050565b600063ffffffff82169050919050565b611d4c81611d33565b82525050565b6000602082019050611d676000830184611d43565b92915050565b6000819050919050565b611d8081611d6d565b8114611d8b57600080fd5b50565b600081359050611d9d81611d77565b92915050565b600060208284031215611db957611db8611ca3565b5b6000611dc784828501611d8e565b91505092915050565b611dd981611cc8565b82525050565b6000602082019050611df46000830184611dd0565b92915050565b60008115159050919050565b611e0f81611dfa565b82525050565b6000602082019050611e2a6000830184611e06565b92915050565b600081519050919050565b600082825260208201905092915050565b6000819050602082019050919050565b611e6581611cc8565b82525050565b6000611e778383611e5c565b60208301905092915050565b6000602082019050919050565b6000611e9b82611e30565b611ea58185611e3b565b9350611eb083611e4c565b8060005b83811015611ee1578151611ec88882611e6b565b9750611ed383611e83565b925050600181019050611eb4565b5085935050505092915050565b60006020820190508181036000830152611f088184611e90565b905092915050565b6000600a9050919050565b600081905092915050565b6000819050919050565b6000602082019050919050565b611f4681611f10565b611f508184611f1b565b9250611f5b82611f26565b8060005b83811015611f8c578151611f738782611e6b565b9650611f7e83611f30565b925050600181019050611f5f565b505050505050565b600061014082019050611faa6000830184611f3d565b92915050565b60008060408385031215611fc757611fc6611ca3565b5b6000611fd585828601611cf1565b9250506020611fe685828601611cf1565b9150509250929050565b611ff981611d33565b811461200457600080fd5b50565b60008135905061201681611ff0565b92915050565b6000806040838503121561203357612032611ca3565b5b600061204185828601611cf1565b925050602061205285828601612007565b9150509250929050565b7f4e487b7100000000000000000000000000000000000000000000000000000000600052603260045260246000fd5b7f4e487b7100000000000000000000000000000000000000000000000000000000600052601160045260246000fd5b60006120c582611d33565b915063ffffffff82036120db576120da61208b565b5b600182019050919050565b600082825260208201905092915050565b7f596f752063616e206e6f74206f776520796f757273656c66206d6f6e65790000600082015250565b600061212d601e836120e6565b9150612138826120f7565b602082019050919050565b6000602082019050818103600083015261215c81612120565b9050919050565b600061216e82611d33565b915061217983611d33565b9250828201905063ffffffff8111156121955761219461208b565b5b92915050565b60006121a682611d33565b91506121b183611d33565b9250828203905063ffffffff8111156121cd576121cc61208b565b5b92915050565b60008160030b9050919050565b6121e9816121d3565b82525050565b600060208201905061220460008301846121e0565b92915050565b7f466f756e6420746865206379636c652121212121000000000000000000000000600082015250565b60006122406014836120e6565b915061224b8261220a565b602082019050919050565b6000602082019050818103600083015261226f81612233565b9050919050565b7f4e6f7420466f756e6420616e79206379636c6521212121000000000000000000600082015250565b60006122ac6017836120e6565b91506122b782612276565b602082019050919050565b600060208201905081810360008301526122db8161229f565b905091905056fea26469706673582212208945c59ea2969262b2793a5f97f7703ab2b3b5e3782047eff11fecb0c61129ff64736f6c63430008120033",
  "linkReferences": {},
  "deployedLinkReferences": {}
}